:020000040800F2
:10000000F0FF0120ADFF0408BDF50208ED02020873
:10001000250005082500050825000508000000004A
:10002000000000000000000000000000C9F5020808
:10003000C5F5020800000000C1F50208D5D001088E
:1000400025000508250005082500050825000508E8
:1000500025000508250005080D1702084D1802089F
:100060000D180208CD1702088D17020819010108A2
:1000700009010108F9000108E9000108D50001089B
:10008000C1000108AD0001082500050800000000BE
:100090000000000000000000000000004D170208F2
:1000A00099B7010885BB0108C9B6010809BD010857
:1000B000C5BA010805BA010839B9010825000508C3
:1000C0002500050825000508250005082500050868
:1000D00025000508B1D1010815D101080000000074
:1000E000CD16020825000508513A0308000000005B
:1000F000000000000000000000000000990001085E
:10010000000000002500050869B801082500050861
:1001100000000000000000000000000000000000DF
:1001200085000108710001085D000108490001080F
:100130003500010800000000000000000000000081
:10014000000000000000000000000000750503082A
:10015000210001080D000108F9FF0008250005082D
:10016000250005082500050800000000000000002B
:10017000000000000000000000000000000000007F
:10018000000000002500050800000000000000003D
:08019000250005082500050803
:0801980044FB0400010000001B
:1001A00010020100CC1E0020C81E0020000000002C
:1001B000180700080B123C00DC150020D01E0020A0
:1001C000000000001A0700081F0210001C1F00207A
:1001D0000C1F002000000000158400082C001000F7
:1001E000B03A0020A03A00200000000023180108C7
:1001F0002B002400E43A0020C03A00200000000058
:10020000F517010819021000683A0020083B002089
:10021000000000006985000829207800803900204E
:10022000183B002000000000000000002810100013
:10023000A03B0020903B002000000000A10C010822
:100240001C021000F0330020B03B00200000000032
:10025000A585000820320A00CC3B0020C03B0020CE
:1002600000000000250C010814000300C83700201E
:10027000D83B0020000000005607000801200800BD
:100280008C220020DC3B0020000000005A07000800
:100290000C109C00E0210020E43B00200000000046
:1002A000B94103080A7028006C210020803C00201E
:1002B00000000000450C01080E906201082000209B
:1002C000A83C002000000000ED2602080101040007
:1002D0006C1F00200C3E0020000000000000000009
:1002E00000010400641F0020103E002000000000F8
:1002F0006207000802010300601F0020143E002076
:1003000000000000E54103081A023C00303E0020D6
:100310007843002000000000658F000827000400DB
:100320002C3E0020B44300200000000066070008B7
:1003300003123300944F0020D04F00200000000033
:100340006A07000825102C01744D0020045000207D
:100350000000000000000000101002005C4D0020B2
:1003600030510020000000009E0700081900050021
:10037000EC4B00203451002000000000A0070008D2
:100380001A000E00604B00203C51002000000000CD
:10039000A6070008F8210600284A00204C5100203A
:1003A00000000000B4070008150070001045002090
:1003B0005451002000000000000000002A006000EE
:1003C000484C0020C451002000000000C52602084F
:1003D0000B301800DC790020AC8100200000000008
:1003E000BC0700081F30240010710020C4810020C9
:1003F00000000000D407000805020400A87B0020CC
:10040000E881002000000000F807000803010A004E
:1004100038710020EC81002000000000FC0700087B
:1004200013020400BC6F0020F881002000000000CF
:1004300006080008F6210C005C890020AC89002029
:10044000000000000C08000802000C005089002089
:10045000B8890020000000000000000008120F0012
:1004600040890020C4890020000000003184000879
:10047000F701060038890020D48900200000000020
:10048000180800080A020A00CC840020DC89002039
:100490000000000019460308030001003885002011
:1004A000E8890020000000000000000001020500B3
:1004B000F8920020B8A00020000000000D020408FF
:1004C00000020500F0920020C0A000200000000003
:1004D000000000001B021000DC920020C8A00020D9
:1004E00000000000D18500081E000600409000209A
:1004F000D8A00020000000001E0800081B100C00FF
:10050000E08C0020E0A00020000000000515040899
:100510002102F000388B0020ECA000200000000039
:10052000F50D04083710240070920020DCA1002093
:1005300000000000240800080E020200389300208A
:1005400000A2002000000000480800081610060065
:100550009C8A002004A20020000000004A08000835
:100560002F10220094A000200CA200200000000008
:100570005008000805100600008F002030A200205F
:10058000000000007208000823100E00888F002071
:1005900038A2002000000000B90C0108F5518C00C1
:1005A000A48A002048A20020000000005D3F04084B
:1005B0000D00240018D10020A8D200200000000067
:1005C00095B703080902010084D00020CCD2002096
:1005D00000000000780800080400800004D000201B
:1005E000D0D200200000000000000000F90104004B
:1005F00088CF002050D300200000000005AB010888
:100600001300040084CF002054D300200000000019
:100610007C08000818202C0054CF002058D300205C
:10062000000000002D90000806101A0080C5002070
:1006300084D300200000000049270208FB010100CC
:10064000BCC40020A0D300200000000001900008DE
:10065000FC01090088C30020A4D300200000000092
:100660001190000816023F0048C30020B0D30020BC
:1006700000000000898400083400100078C20020C7
:10068000F0D30020000000001D270208110208001E
:1006900050C2002000D400200000000080080008A4
:1006A0001212040048C2002008D4002000000000FC
:1006B000880800081220100038C200200CD4002046
:1006C000000000008C080008FD0121007CB900201A
:1006D0001CD40020000000008DAA010802020300C3
:1006E00028A3002040D400200000000000000000EB
:1006F0000C020400E4A2002044D40020000000000A
:100700008D850008FE011400B0AD002048D4002003
:0807100000000000ED83000869
:1007180000000000000000000000000000000000D1
:1007280000000000000000000000000000000000C1
:1007380000000000000000000000000000000000B1
:100748000000000000000000000000181D1E03004B
:100758000000E8036400040A0001B300000020035D
:100768000000000000000000000000000000000081
:100778000000000000000000000000000000000071
:100788000000000000000000000000000000000061
:1007980000000000010000050000280100007E059F
:1007A800EA05B4053200E803D00700000401F401AB
:1007B80014000000AE014A015E012C016401010031
:1007C800000001000A019A01001E0A000000000052
:1007D8000001000000050000010203000000000005
:1007E800000000000000000000000000008007007A
:1007F80000000000040101006C1600000000000069
:1008080001000000000000000100000002020000DA
:100818003F0100000000000001000000200032003D
:10082800C800D0079600140032002800B004400623
:100838000005500014000F000800640001000000CB
:100848000000C409000019000000000000000000BA
:100858000000000000000000000000000000000090
:10086800000000000000000000002000030100005C
:1008780000000000000444320000000001010101F2
:10088800FFFFFFFF000000010000054D343152005A
:040898000008000054
:10089C00010101FF01FF0000000004010000000045
:1008AC000000000210000000070000000000000023
:1008BC000000000001020304060708090100000003
:1008CC00DD03010800000000D81B05082070002083
:1008DC00702D7200FFFFFFFF0101010000010101FB
:1008EC0000D6012D202D2D202D2D2D2D202D2D2D03
:1008FC0000000000000000000000000000000000EC
:10090C00000000000000000000000000002E0508A0
:10091C0000000000000000008C2E05080100000003
:10092C00FA000000010000000100000001010100BC
:10093C00C221002000C80100C1210020005001008C
:10094C00C0210020005A0100BE210020020000003E
:10095C009C1D05081081050818810508BA8C00201B
:10096C000100C40900000000B88C00200100C4097B
:10097C0000000000B68C00200100C409000000003B
:10098C00B48C00200100C40900000000B08C0020D1
:10099C000100C40900000000B28C00200100C40951
:1009AC0000000000AE8C00200100C4090000000013
:1009BC00AC8C00200100C40900000000821F002044
:1009CC000100C80001000000801F002032003075BB
:1009DC00320000007E1F0020055A05007B1F0020FE
:1009EC0000FF01007D1F0020010000005C020020C0
:1009FC00791F0020020000001C4905087A1F002006
:100A0C0000FF01007C1F0020010000005C020020A0
:100A1C00781F0020020000001C49050898220020C5
:100A2C00EE02CA08010000009622002000C8010056
:100A3C00640000009522002000C801006400000042
:100A4C009422002002000000A81D0508721F00203F
:100A5C0080C1803E05000000701F002080C1803ED8
:100A6C00050000006A1F002080C1803E05000000C8
:100A7C00681F002080C1803E05000000631F00201D
:100A8C0000FF01005C1F00206400F4010100000065
:100A9C005B1F002004000000B41D05085A1F002035
:100AAC0002000000C81D0508F91F00200D00000001
:100ABC00D41D0508F61F002000640100F41F00205F
:100ACC00320010270A000000F31F00200D00000068
:100ADC00D41D0508F21F00200D000000D41D0508D0
:100AEC00F11F0020020000000C1E05080000000091
:100AFC0000000000181E0508587B00209CFF2C01EC
:100B0C000000000010260020E0150C17000000006B
:100B1C001226002002000000501E0508A42200200E
:100B2C000100FF7F01000000A32200200200000052
:100B3C005C1E0508FB1F0020030000006C1E05084E
:100B4C00FA1F0020030000006C1E0508A0210020E5
:100B5C000000E803010000009E2100200000E803D3
:100B6C00010000009C2100200000E80301000000AF
:100B7C009A2100200000E8030100000098210020C9
:100B8C000000E80301000000962100200000E803AB
:100B9C000100000095210020001401009421002088
:100BAC00030000007C1E0508AC2100200000F401AD
:100BBC0001000000AA2100200000F4010100000047
:100BCC00A82100200000F40101000000A621002053
:100BDC000000F40101000000A42100200000A00F7F
:100BEC0001000000A22100200000A00F0100000065
:100BFC00D521002019640100D4210020020000003E
:100C0C008C1E0508D2210020E803D0070A00000042
:100C1C00D0210020006401000A000000C521002042
:100C2C0000640100C421002000640100CC210020DC
:100C3C00006401000A000000CB21002000640100C8
:100C4C000A000000CA210020006401000A00000014
:100C5C00CF210020006401000A000000CE210020FA
:100C6C00006401000A000000CD2100200064010096
:100C7C000A000000C921002001FF01000A00000049
:100C8C00C821002001FF01000A000000C72100203C
:100C9C0001FF01000A000000042000200000F40104
:100CAC0001000000022000200000A00F0100000045
:100CBC00002000200000A00F01000000FE1F0020FB
:100CCC000000A00F01000000FC1F00200000A00F7E
:100CDC0001000000BD21002000640100BC210020A7
:100CEC0000640100BB21002000640100BA21002037
:100CFC00FF080100B921002001640100BD090108B1
:100D0C0081090108981E0508B82100200064010023
:100D1C00B62100201400E80301000000B4210020DB
:100D2C00E80330750A000000B221002000C8010061
:100D3C00B121002000C80100B021002000C8010032
:100D4C00AF210020006401000A0000008A2200206C
:100D5C000000D007010000008522002000C801001F
:100D6C008422002000C801008322002000C801005A
:100D7C00882200200000D007010000008222002001
:100D8C0000C801008122002000C801008022002040
:100D9C0000C80100862200200000D00701000000DE
:100DAC007F22002000C801007E22002000C8010024
:100DBC007D22002000C8010000000000F10601089F
:100DCC00081F0508EF1F002033000000A41F0508B2
:100DDC00EE1F002000C80100EC1F0020E803D00724
:100DEC00010000004D4154454B46343131525800FE
:100DFC00771F002000030100761F00200003010074
:100E0C00510601082906010874200508E5050108AA
:100E1C0099050108C820050879060108691D010813
:100E2C0048210508741F002001030100190B01085B
:100E3C00ED0A01083024050829050108E904010818
:100E4C009424050807070108413D010830250508D1
:100E5C002119010800000000D8250508DD1A010839
:100E6C00790B0108742605085907010800000000D9
:100E7C00E426050831080108DD07010848270508A4
:100E8C00C108010885080108E4270508F9090108CB
:100E9C00410A010864280508C3210020010601004D
:100EAC00A10701086D07010860290508FD08010864
:100EBC00CD1D0108D0290508710A0108551E01082D
:100ECC00B02A0508AE21002001030100C10601086B
:100EDC0091060108842B0508450B01080000000051
:100EEC00E82B050869050108391D01084C2C05087B
:100EFC000000000000000000D82C0508C50A0108FD
:100F0C00CD1E0108582D0508561F002088136F1799
:100F1C0001000000581F002088136F17000000000C
:100F2C009671002000000000000000009471002069
:100F3C000000000000000000927100200000000082
:100F4C000000000090710020000000000000000074
:100F5C008E71002000000000000000008C71002049
:100F6C000000000000000000880B002000000000C2
:100F7C00000000002C1F002002000000E02E0508DD
:100F8C00541F002088136F1701000000A07B002065
:100F9C0088136F17000000007D040108000000009A
:100FAC00EC2E05085A26002001000000402F0508F1
:100FBC00A27B0020010000004C2F0508987B00202C
:100FCC0002000000542F0508000000000000000083
:100FDC00602F05086904010800000000FC2F0508BB
:100FEC000000000000000000503005080000000068
:100FFC0000000000C03005089C7B0020E0150C1799
:10100C000000000001000000A00F0000B80B000061
:10101C0002FFFF01285200200000803F000000006A
:10102C0000000000000000000000803F00000000F5
:10103C0000000000000000000000000000000000A4
:10104C000000000000000000000000000000000094
:10105C000000803F000000000000000000000000C5
:10106C00010000000000803FFFFFFFFF0000803FF9
:10107C00000000000000000000000000FF00000065
:10108C000403090412010002EF02014083045632EA
:10109C0000020102030100001201000202020040E2
:1010AC00830440570002010203010000090264009E
:1010BC00030100C0320904000001030000000921F3
:1010CC00110100012226000705830308000A080B02
:1010DC0001020202010009040100010202010005E3
:1010EC002400100105240100020424020205240638
:1010FC000102070582030800FF09040200020A002E
:10110C0000000705010240000007058102400000B5
:10111C0009024300020100C032090400000102026E
:10112C000100052400100105240100010424020221
:10113C000524060001070582030800FF09040100CD
:10114C00020A0000000705010240000007058102A9
:10115C0040000000FF000000943D05080000000066
:10116C000000000000000000000000000000000073
:10117C000000000000000000000000000000000063
:10118C0000FFFF0000000000AA550501000001004F
:10119C00683D050800000000000000000000000091
:1011AC000000000000000000000000000000000033
:1011BC000000000000000000FF1FFF1F05010905D3
:1011CC00A101A100050109300931093209330935A2
:1011DC000934094009381581257F75089508810265
:1011EC00C0C0000009022200010100E03209040025
:1011FC000001030102000921110100012226000750
:10120C0005830308000A000000000000010203042B
:10121C0001020304060708095DF7020825FE02080F
:10122C00A1F90208CDD70208D5DC0208DDD70208E7
:10123C00F9D70208A5D7020895D7020800000000CC
:10124C00000000002D202D2D202D2D2D2D202D2D9D
:10125C002D2D000000000000000000000000000028
:10126C00000000AA550B010000AA5507010000AAB6
:10127C00550902000000AA5503009F000100000060
:10128C00C01200008081002000000000A48100201A
:10129C000000000001000000000000009C890020FC
:1012AC0008000000000000008C89002008000000ED
:1012BC0020000000FFFFFFFFA8A30508B4A305084A
:1012CC00C0A30508CCA30508D8A30508E4A305080A
:1012DC00948F050810C30508B0C1050838A305088C
:1012EC0050EA05089CA30508708D0508A0A3050805
:1012FC00A4A305088CA3050890A3050894A30508CE
:10130C0010C0050898A305081900C800F4012003B3
:10131C008CA3050890A30508F0A3050894A3050861
:10132C00F4A30508F8A305083F46030800000000D5
:10133C000000000000000000A1DC020895DB0208A0
:10134C007DF902080000000091D70208B9FF0208DD
:10135C0015DB0208B5F602080000000000000000D2
:10136C004DD7020811DC020855DB0208BDF8020853
:10137C000000000065D70208B9F60208E9DA020895
:10138C0015F60208000000000000000059D7020802
:10139C0000000100E00100000000803F0000803FE1
:1013AC00FFFFFFFF080101FFFFFF00000800000026
:1013BC00B1D60208ADD60208A9D602089DD60208FD
:1013CC0099D60208A5D60208A1D6020825D702088C
:1013DC0019D70208F1D6020805D70208DDD6020893
:1013EC00C9D60208B5D60208010000000060024010
:1013FC00106002400000000000000000000B000024
:10140C00000000000000000000000000006002402E
:10141C00286002400100000000000000060C0000E3
:10142C00000000000000000000000000006002400E
:10143C00406002400200000000000000100D00009F
:10144C0000000000000000000000000000600240EE
:10145C00586002400300000000000000160E00005F
:10146C0000000000000000000000000000600240CE
:10147C00706002400400000000000000200F00001B
:10148C0000000000000000000000000000600240AE
:10149C0088600240050000000000000026100000DB
:1014AC00000000000000000000000000006002408E
:1014BC00A060024006000000000000003011000097
:1014CC00000000000000000000000000006002406E
:1014DC00B86002400700000000000000362F00003A
:1014EC00000000000000000000000000006402404A
:1014FC0010640240000000000000000000380000F2
:10150C000000000000000000000000000064024029
:10151C0028640240010000000000000006390000B1
:10152C000000000000000000000000000064024009
:10153C00406402400200000000000000103A00006D
:10154C0000000000000000000000000000640240E9
:10155C00586402400300000000000000163B00002D
:10156C0000000000000000000000000000640240C9
:10157C00706402400400000000000000203C0000E9
:10158C0000000000000000000000000000640240A9
:10159C0088640240050000000000000026440000A2
:1015AC000000000000000000000000000064024089
:1015BC00A06402400600000000000000304500005E
:1015CC000000000000000000000000000064024069
:1015DC00B86402400700000000000000364600001E
:1015EC00000000000000000000000000C4AC050872
:1015FC0078AC05080000000055420308A0860100E5
:10160C0004000000000000000000000000000000CA
:10161C0000000000000000000000000000000000BE
:10162C00000000000000000000000000C4AC050831
:10163C00CCAC05080000000029A90108E803000053
:10164C00040000000000000000000000000000008A
:10165C00000000000000000000000000000000007E
:10166C000000000000000000000000005C8705087E
:10167C00D4AC050800000000956803087D0000004C
:10168C000600000000000000000000000000000048
:10169C00000000000000000000000000000000003E
:1016AC00000000000000000000000000DCAC050899
:1016BC000000000000000000EDC80108E803000075
:1016CC00030000000000000000000000000000000B
:1016DC0000000000000000000000000000000000FE
:1016EC00000000000000000000000000E0AC050855
:1016FC000000000000000000457D020810270000DB
:10170C0003000000000000000000000000000000CA
:10171C0000000000000000000000000000000000BD
:10172C0000000000000000000000000064E6050856
:10173C0000000000DD150108510302085F7600006F
:10174C000500000000000000000000000000000088
:10175C00000000000000000000000000000000007D
:10176C00000000000000000000000000F0E8050888
:10177C000000000000000000F91E02081027000005
:10178C00010000000000000000000000000000004C
:10179C00000000000000000000000000000000003D
:1017AC00000000000000000000000000ECAC050888
:1017BC0000000000000000002DA90108E803000053
:1017CC000500000000000000000000000000000008
:1017DC0000000000000000000000000000000000FD
:1017EC00000000000000000000000000F8AC05083C
:1017FC00000000000000000089480308204E000093
:10180C0003000000000000000000000000000000C9
:10181C0000000000000000000000000000000000BC
:10182C0000000000000000000000000008AD0508EA
:10183C00000000000000000075460308204E000068
:10184C000300000000000000000000000000000089
:10185C00000000000000000000000000000000007C
:10186C0000000000000000000000000018AD05089A
:10187C000000000000000000C5AC0108400D030092
:10188C000300000000000000000000000000000049
:10189C00000000000000000000000000000000003C
:1018AC0000000000000000000000000008A2050875
:1018BC0000000000000000004DD0030810270000BD
:1018CC00010000000000000000000000000000000B
:1018DC0000000000000000000000000000000000FC
:1018EC000000000000000000000000008CAC0508A7
:1018FC000000000000000000352004081027000044
:10190C0003000000000000000000000000000000C8
:10191C0000000000000000000000000000000000BB
:10192C0000000000000000000000000058830508C3
:10193C00000000000000000031A80108A8610000B0
:10194C00010000000000000000000000000000008A
:10195C00000000000000000000000000000000007B
:10196C0000000000000000000000000030A205088C
:10197C00000000000000000001D30108A00F0000CF
:10198C00010000000000000000000000000000004A
:10199C00000000000000000000000000000000003B
:1019AC0000000000000000000000000028AD050849
:1019BC000000000000000000554004081027000043
:1019CC00010000000000000000000000000000000A
:1019DC0000000000000000000000000000000000FB
:1019EC00000000000000000000000000948E0508BC
:1019FC000000000000000000293404081A41000017
:101A0C0001000000000000000000000000000000C9
:101A1C0000000000000000000000000000000000BA
:101A2C000000000000000000000000001883050802
:101A3C000000000000000000A9DF020810270000D1
:101A4C000100000000000000000000000000000089
:101A5C00000000000000000000000000000000007A
:101A6C0000000000000000000000000084AC05082D
:101A7C000000000000000000C14301081A410000F2
:101A8C000100000000000000000000000000000049
:101A9C00000000000000000000000000000000003A
:101AAC0000000000000000000000000034AD05083C
:101ABC00000000000000000051E60208400D030089
:101ACC00000000000000000000000000000000000A
:101ADC0000000000000000000000000000000000FA
:101AEC000000000000000000000000003CAD0508F4
:101AFC00000000000000000053B70308400D030075
:101B0C0000000000000000000000000000000000C9
:101B1C0000000000000000000000000000000000B9
:101B2C0000000000000000000000000044AD0508AB
:101B3C000000000000000000154B040850C300001A
:101B4C000300000000000000000000000000000086
:101B5C000000000000000000000000000000000079
:101B6C0000000000000000000000000050AD05085F
:101B7C0000000000000000004162030840420F001A
:101B8C000000000000000000000000000000000049
:101B9C000000000000000000000000000000000039
:101BAC000000000000000000000000005CAD050813
:101BBC000000000000000000B9CB030850C3000077
:101BCC000000000000000000000000000000000009
:101BDC0000000000000000000000000000000000F9
:101BEC000000000000000000000000000000803F2A
:101BFC0058E60508000008020503030060E6050826
:101C0C00010008020504030018A505080200FE01E6
:101C1C00011003006C84050803001402000300008B
:101C2C0068E6050804001F020200080070E60508BB
:101C3C0005001F0202010800FFFF0000FFFFFFFF6D
:1080000090ED057A90ED004AD0ED066AD0ED014A78
:10801000D0ED047A90ED035AD0ED025AA4EE007A26
:10802000B0EE406AB0EE470AB0EE667AA4EE867A09
:1080300067EEC07AA5EE407AE5EE867A80ED057AA5
:10804000C0ED067A704700BFD0ED057A90ED013A99
:10805000D0ED003AD0ED064A90ED024A90ED077A55
:1080600090ED035A90ED086AD0ED045AC0ED067AFF
:10807000F0EE406A27EE830AC0ED056AA3EEA60A79
:1080800080ED087AA4EE240AA5EE470AA5EEC60AFA
:1080900080ED070A704700BFD0ED007A90ED017ABD
:1080A00030EE670AE7EE007AB0EE670AC0ED007ABC
:1080B000704700BF704700BF0028F0B403DA2D23DB
:1080C0000B7040420131092804464FF0010307DDDF
:1080D00003EB83035B00B0FBF3F2092AF8D883B10A
:1080E0000F48A0FB0326B4FBF3F2092A02F1570C58
:1080F00002F1300709DD03FB1244F30801F801CB5C
:10810000EFD100230B70F0BC704703FB1244F3085F
:1081100001F8017BE5D100230B70F0BC704700BF74
:10812000CDCCCCCC884270B44FF0010442D301FBDB
:1081300004F4B0FBF4F58D42F9D2ECB142BB092D49
:1081400004FB150005F1570605F130020EDDB4FB06
:10815000F1F403F8016B7CB1B0FBF4F5092D04FBDD
:10816000150005F1570605F13002F0DCB4FBF1F41F
:1081700003F8012B002CEFD100221A7070BC70475D
:1081800003F8016BB4FBF1F4002CF5D0B0FBF4F56F
:10819000092D04FB150005F1370605F13002EFDC6F
:1081A000B4FBF1F403F8012B002CEFD100221A707C
:1081B00070BC70470546002AEAD1C0E70388B3F5D2
:1081C000FA6F17D38378013B0B2B13D8C378013B8D
:1081D0001E2B0FD80379172B0CD843793B2B09D8CA
:1081E00083793B2B06D80089B0F57A7F2CBF00201D
:1081F00001207047002070472DE9F04714461D46C6
:1082000006464FF47A7200232046294647F002FDC5
:108210004D4BDFF848814D4A4D4F034488FB031016
:108220001844D91782FB032CC1EB601088FB00288F
:1082300087FB03279C44474AC1EBEC2CC0EB001E94
:1082400082FB0C29A3EB8E0E1F44434A86F806E0FE
:10825000C1EB27474FEAEC7E08EB000ACEEBA90EF4
:1082600082FB07824FEAE0780EEB4E0EC8EB6A18ED
:10827000ACEBCE0CC8EB0818DFF8E4E086F804C0DD
:10828000A0EB880070718EFB0303F817C0EBE212BD
:1082900040F2B55000FB1272C1EBE353B2F5896FA7
:1082A0004FEA83073CDA40F2DA239A4242DCB2F525
:1082B000B77FB4BF4FF0000E4FF0010E4FEA4E09EA
:1082C000DFF8A08009EB0E0308EBC3031FFA8EFC56
:1082D000D88A09EB0E0108EBC10116310B2301E02E
:1082E00031F8020D904218DD013BF9D1CE44012353
:1082F00038F83E00B37007F5FA670132121ABC4431
:10830000F270A6F800C0204629464FF47A72002386
:1083100047F080FC3281BDE8F0870133DBB2E9E74A
:108320004FF0030CE64640F29650DFF838804FF0ED
:108330000609CEE74FF0020CDFF82880E64640F24F
:1083400029404FF00409C4E780BC92C7C5B3A2918D
:1083500007452EC2ABAAAA2A73B06D1689888888F1
:10836000792D03111818050803685A1C026019704A
:10837000704700BF2DE9F047089C2578002B804608
:1083800089460CBF4FF0200A4FF0300A661C25B317
:10839000002A26DD334601E0024698B113F8011B9E
:1083A000501E0029F8D1971E60B13D46013D51464F
:1083B0004046C8476B1C002BF8DC257827EAE7709D
:1083C000013045B1041B29464046C847301916F80C
:1083D000015B002DF7D1BDE8F087002A03DC2846B9
:1083E000F9E70020EEE7571EDFE700BF30B4202397
:1083F000012221254FF47F44FF2143700023457162
:108400000482817402720270027143818381C3818C
:1084100030BC7047034600F11001FF221A705A70F9
:1084200002339942FAD1027042708270C270704772
:10843000144BFF22F0B54FF0FF34C270027102728C
:1084400042724273827303F10C0EA446172716265C
:108450001525002202EB820281189E4585544E703C
:108460008F7081F803C00C710AD093F90620DD7972
:108470001E7A5F7A93F90AC093F90B400633E9E755
:10848000F0BD00BF781805082DE9F04F3149324B97
:1084900083B001F5907B019013274FF000092F481E
:1084A0001022012603E0203098420BD00279974237
:1084B000F9D102680C68A24209D02030984206F136
:1084C0000106F3D1203159453AD00F79E7E74479D5
:1084D0004D79A542F1D19446019A214809EB49050D
:1084E00002EB050A57558AF8016000F572751D4EBA
:1084F000624603E0A8421AD050F82C6FB242F9D17C
:108500000679A642F6D1CF6806464FF0000C964693
:108510008046F268BA4216D00CF1010CBCF1030F90
:1085200006F10C06F5D14046A8427246E4D14FF060
:10853000FF3C203159458AF802C009F10109C4D134
:1085400003B0BDE8F08F086932698242E4D14FFA86
:108550008CFCEEE7383B050874540508B44A05085E
:10856000745405080000014030B409221F2303257C
:108570003E242221027043722922012385728473D2
:10858000C1720273437330BC704700BF10B42C211A
:10859000012402220023047041708270C3705DF8D0
:1085A000044B704730B41422002311250324022108
:1085B000C27001228571C47103708372C3728373A8
:1085C000C373417041728270027230BC704700BF49
:1085D000002306214FF47A720170C0E9012303736E
:1085E000704700BFCB794A7930B48D790C7BDB09B9
:1085F000520202F4606243EA4503134322071DD48A
:108600000380CB790A7A5B0103F47E6343EAD203E9
:1086100043808B7A0A7A4C7ADB09520243EA44039C
:1086200002F46062134383808B7ACA7A5B0103F49D
:108630007E6343EAD203C38030BC70470381CB79A9
:108640000A7A5B0103F47E6343EAD20343818B7AA7
:108650000A7A4C7ADB09520243EA440302F460626C
:10866000134383818B7ACA7A5B0103F47E6343EA06
:10867000D203C38130BC704701207047CB79002BF7
:108680005ED1F0B58D7A4E7B91F809C0CF7A0A7C25
:10869000CB7C91F811E02C0204F470644CEA0404E1
:1086A0002D094FEA062C45EA07150CF4706791F87E
:1086B0000CC04CEA070C8F7B85B0360946EA0716DA
:1086C0001702ADF8025007F47065CF7BADF804C017
:1086D0002F4391F814C08D7CADF806601902120981
:1086E00001F470611B0942EA0E12294343EA0C139C
:1086F00004ADADF80870ADF80A20ADF80040114E99
:10870000ADF80C10ADF80E300DF10202C5F10E0CF3
:10871000C5F11E0701E032F8024BC4F30A0303F26D
:10872000CA4321054FEA4303A6FB03134CBFB91804
:108730000CEB02015B08AA424352ECD105B0F0BD3C
:10874000704700BFABAAAAAAF0B4174C2378591CF3
:1087500001F03F01E5184B1C21447E2603F03F0247
:108760001B232E7122700B71C61D7D2704E0A518F6
:10877000B042DAB2297113D010F8011BA1F17D05C6
:10878000531C012D03F03F03F1D82244E51881F07A
:1087900020010133B042177103F03F022971EBD180
:1087A0002270F0BC704700BF48150020F0B58F7AEA
:1087B0008D79CC7ACE790A7CDFED5F3A4B7C4FEA3B
:1087C000072E0EF4706E45EA0E053F0107F4706C3B
:1087D00004EE105A4FEA042E0D7A240104F4706757
:1087E0000EF4706E46EA0C0404EE904A45EA0E045C
:1087F00005EE104A4C7AF8EEE44A3C4305EE904A06
:1088000016020C7B120102F4706506F470664A7B56
:10881000B8EEC55A64EEA34A34432A4306EE104A22
:10882000F8EEE55A25EE235AFCEEE44A06EE902ACD
:108830001D028A7B1B0185B003F4706405F470652A
:10884000CB7BB8EEC66A14EE901A65EEA35ABCEE66
:10885000C55A2A4307EE102AB8EEC44AF8EEE66A73
:1088600026EE236AFCEEE55AADF8021015EE101A5A
:10887000234307EE903AB8EEC77A24EE234A66EE19
:10888000A36ABCEEC66AADF8041015EE901AF8EEB5
:10889000E77A27EE237ABCEEC44AFCEEE66AADF82E
:1088A000061016EE101A67EEA37A14EE103ABCEE1C
:1088B000C77AADF8081016EE901A9BB2FCEEE77A74
:1088C000ADF80A1017EE101A1A46ADF80C10A2F502
:1088D000487217EE901A0DF10204B2F5AF6FADF8C1
:1088E0000E10ADF80030214604AD08D8A9420CD0D6
:1088F00031F8022BA2F54872B2F5AF6FF6D90F4BE3
:108900001B78122B0CD005B0F0BD821E0E3001E09A
:1089100034F8023B22F8023F9042F9D105B0F0BD95
:10892000074A0849B2F8443001339BB2A2F84430F8
:108930000B8005B0F0BD00BFABAA2A3F19A30020F1
:10894000481500201CA30020054A92F846303F2B12
:1089500005D8D118013381F8480082F846307047B5
:1089600048150020014BD3F88830184748150020DF
:10897000034BD3F88C3003B118471846704700BF3B
:10898000481500200206144A1449127800EBC0036F
:108990004FEA131346BF523B1BB24133032AA1F8DF
:1089A000903000D0704770B40D4D0E4E28780E4CAC
:1089B00036F81020DB009BB29A1A26F81030236894
:1089C000411C13440948236001F00F011A09297062
:1089D000028070BC704700BF302500204815002081
:1089E0003125002034250020542500205825002062
:1089F00038B590F90E30002B01DB002038BD03782C
:108A0000812BFAD1104D427995F99230B3EBD20F08
:108A1000F3D149B195F8952043789A42EDD195F874
:108A2000962083789A42E8D10446407BFFF7AAFF5C
:108A3000E37A227B9B0003F01C0343EA921385F840
:108A4000D030012038BD00BF481500200B4BD3F8B3
:108A5000D40088B110B50A4C237833B917F01EFC46
:108A6000237883F00103237010BD17F011FC2378E5
:108A700083F00103237010BD704700BF481500202C
:108A80009801002040F08001014819F085B800BF2E
:108A9000783A00204FF40063038370470B46024688
:108AA000FF21014819F0C0B8783A002010B50446FB
:108AB000FB20FFF7E7FF00F07F000E2801D8002021
:108AC00010BD20460F21FFF7E9FF012010BD00BFB8
:108AD000012380F850307047F0B4037C4569026888
:108AE0001F2B37D9203B2021546899400C4223D0BA
:108AF00010249C40D160D4605168D940CE074ED438
:108B0000EFF31183502282F31288EA6B1168C907D0
:108B100009D45468002C52D1D5E909618E4243D161
:108B2000012285F86020DBB283F31188037C0268A0
:108B30001F2B194614D9203B082150689940084240
:108B400000D0D1600421506801FA03F3184223D108
:108B5000F0BC7047202416689C4026420FD119466D
:108B6000082310688B40184200D0936004231068DB
:108B700003FA01F10842EBD09160F0BC704710217C
:108B80009940946091601168D940CC07B8D5012113
:108B900001FA03F39360B3E7D360F0BC704701219F
:108BA00001FA03F3D360ABE7AF690F44D7600ED887
:108BB0002E69711A5160AC62002185F8601011684D
:108BC00041F00101DBB2116083F31188AEE7711A45
:108BD0005160AE62F0E700BF2DE9F843AE4DAF4CF7
:108BE0002A7823789A4240F02D81AD4B1A78002ADA
:108BF00000F08D80AB4B1E78AB4B002E40F089808F
:108C00001968B3F830714E628889012A40EA07007A
:108C10008881A3F8306157D0D3F83411B3F8647267
:108C20004E628889022A40EA07008881A3F86462BC
:108C30004AD0D3F86812B3F898734E628889032A31
:108C400040EA07008881A3F898633DD0D3F89C13CD
:108C5000B3F8CC744E628889042A40EA0700888100
:108C6000A3F8CC6430D0D3F8D014B3F800764E62B9
:108C70008889052A40EA07008881A3F8006623D086
:108C8000D3F80416B3F834774E628889062A40EA8E
:108C900007008881A3F8346716D0D3F83817B3F8E3
:108CA00068784E628889072A40EA07008881A3F81D
:108CB000686809D0D3F86C28B3F89C09566291898A
:108CC00001439181A3F89C6995F800E023789E45C3
:108CD0001DD0764F9C469B0063449B00FD18FB58BB
:108CE000ABB92B7A9BB96A7A8AB90CF1010303F00C
:108CF0000303D9B28E45217009D003EB83039C0096
:108D00003B191A7214F06EF86B6803443B51BDE8CE
:108D1000F8835E68198971603768186847F0010741
:108D200040F20D313760A0F848108689012A46F4D8
:108D300080768681C8D0D3F83861B3F83C71D3F817
:108D400034017760376847F001073760A0F84810B2
:108D50008689022A46F480768681B5D0D3F86C6283
:108D6000B3F87072D3F868027760376847F001078C
:108D70003760A0F848108689032A46F480768681F9
:108D8000A2D0D3F8A063B3F8A473D3F89C037760A0
:108D9000376847F001073760A0F848108689042A31
:108DA00046F4807686818FD0D3F8D464B3F8D87433
:108DB000D3F8D0047760376847F001073760A0F830
:108DC00048108689052A46F4807686813FF47CAF78
:108DD000D3F80866B3F80C76D3F8040677603768E2
:108DE00047F001073760A0F848108689062A46F444
:108DF000807686813FF468AFD3F83C67B3F840775C
:108E0000D3F838077760376847F001073760A0F874
:108E100048108689072A46F4807686813FF454AF4D
:108E2000D3F87028B3F87408D3F86C385060106821
:108E300040F001001060A3F848109A8942F4807253
:108E40009A8141E7804613F0CDFF94F800C095F871
:108E500000E0F4452ED04FEA8C03144F03EB0C02D4
:108E600007EB8202167A46B3B8F1000F3ED01049E4
:108E70000022B1F808900132B9F1000F18BF0026A6
:108E8000904501F58471F4D186BB054A1278002A19
:108E90003FF422AFAEE600BFD5AD0020D6AD002036
:108EA000AEC50020ADC50020B0C50020D8AD002063
:108EB00028AE0020154F4FEA8C0363449B00F9183D
:108EC000FA58821A002AFFF622AF4A7A3AB1013ADA
:108ED000D2B24A72AAB100F57A70F85000E0FA50A6
:108EE0000B4B1A78002A7FF485AEEDE603EB0C02FB
:108EF000920000F51C50B9181030B85000220A72C8
:108F0000C3E74A681044F850EAE700BFD8AD002034
:108F1000AEC5002010B5027C01681F2A4FF0200367
:108F20000ED94C68203A93401C4208D00B4A406846
:108F300000241470026822F001020260CB6010BDB0
:108F40000C6893401C42FAD0044A40680024147014
:108F5000026822F0010202608B60F0E76393002058
:108F600018F03CBF38B51D4B1B78044600F12505B1
:108F700093B104221A49203048F038FC28461422C4
:108F8000184948F033FC012384F83A30164B1B781B
:108F900073B984F83B3038BD28461422134948F091
:108FA00025FC012384F83A300F4B1B78002BF0D0BE
:108FB0000F4B186859689A68DD68E5602060616049
:108FC000A260DD69186959699A69A2610123E561A6
:108FD0002061616184F83B3038BD00BF958A002074
:108FE000648A00204C8A0020968A00201C80050894
:108FF0006C8A0020014B186814F07EB924430020CD
:1090000010B500210446012013F05CF8207010BD5B
:1090100038B500240472451EE1B2022013F052F864
:109020000134082C05F8010FF6D138BD38B52C22D3
:10903000002148F09DFB034640F2DC51642040F2E1
:109040001A4240F2022418745982132019219A827C
:1090500040F2753240F26C751C8398760E24022023
:109060001977DA830A210122DD8283F82A0040F68B
:10907000430583F82B1083F822409A7383F8252048
:1090800083F829201D8419460248BDE8384010F0B5
:1090900012BB00BF2880050808B530202CF01CFB4F
:1090A0004FF47A7013F014FF8E21044818F074FD09
:1090B000A0F1C400B0FA80F0400908BD783A002061
:1090C00010B51A4C36202CF007FB94F9923003EBC4
:1090D00043032344232093F8D8102CF0F5FA94F995
:1090E000923003EB43032344242093F8D9102CF04F
:1090F000EBFA94F9923003EB43032344252093F8D1
:10910000DA102CF0E1FA94F8921001EB41014900D9
:10911000103101F0FE010A202CF0D6FA3A202CF092
:10912000DBFA3420BDE810402CF0D6BA48150020F8
:10913000094890F8D01090F992300B44DAB2931CA1
:109140005BB21D2BC4BFA2F11D035BB2002BF4DB8D
:1091500080F89230B4E700BF4815002010B50D4BE1
:109160000D4A0E4C1B781268C4F83821132B4FF0AF
:10917000C00284F83C2103D1094B4FF6C072DA805B
:10918000C0210C202CF0A0FA0F2384F89230BDE807
:10919000104095E719A300205CAD00204815002081
:1091A0001CA3002010B5264C94F83D3194F83E21C4
:1091B0001844C0B2904284F83D0105D3801AC0B271
:1091C0009042FBD284F83D0136202CF085FA94F8C9
:1091D0003D312344232093F8983003EB4303234489
:1091E00093F840112CF070FA94F83D312344242078
:1091F00093F8983003EB4303234493F841112CF088
:1092000063FA94F83D312344252093F8983003EB1A
:109210004303234493F842112CF056FA94F83D315D
:1092200023440A2093F898102CF04EFA94F83D3419
:10923000082B00D010BD3A20BDE810402CF04CBAED
:109240004815002038B5194C054694F897100C20A5
:109250002CF03AFA082118202CF036FAADB994F81F
:10926000951009202CF030FA0D2107202CF02CFA53
:10927000162119202CF028FA032014212CF024FAAE
:109280000A20BDE8384013F081BE032109202CF0EC
:109290001BFA0D2107202CF017FA192016212CF0AB
:1092A00013FA0A20BDE8384013F070BE48150020BC
:1092B0002DE9F047304B314D1A68D5F8403482B073
:1092C000D31A0020182B8DF807004DD895F8448448
:1092D0002B4F08F1010808F003084FEAC80982463D
:1092E0000DF10706A9EB08042C4494F84E349BB307
:1092F00090BB94F8482495F86434934202D313E069
:109300000028EFD1E2183146002392F849043A468A
:1093100029F034FC95F8643494F848240133DBB226
:10932000934285F86434EBD39342DBD1A9EB08096F
:10933000A94408F1010385F8448403F0030889F87F
:109340004EA44FEAC809A9EB08042C4485F864A48C
:1093500094F84E34002BCBD13146002228F030FE59
:10936000002002B0BDE8F08702AE0123C5F840241A
:1093700006F8013DF0E700BF5CAD00204815002075
:109380007986000870B5494C94F8CC3082B06BB146
:10939000F020FFF777FB0546F120FFF773FB802DE8
:1093A00002D0002002B070BD0328FAD1404B987B58
:1093B00016F046FDC4F868040028F2D001683D4D5F
:1093C00001F13F4303F57E039B0A0122EB5C03F0AE
:1093D0001F055B093926AA40032B4FF00005867153
:1093E000C5715ED0042B57D0022B25D08388009303
:1093F000084600256946019527F036FC94F8CE0012
:1094000000283AD194F8CD0058BBC4F8700494F801
:10941000CF00B0B9C4F8D400D4F8700408B116F085
:1094200037FF254B1A7822B9032201201A7002B0A7
:1094300070BD012002B070BD204B5D6C2A435A64A0
:10944000D4E716F0FDFCC4F8D40018B13C22002388
:109450008271C3713CF07EF8D4F8D40016F01EFF80
:10946000DAE716F0EDFCC4F8700418B13A220023D4
:109470008271C3713CF06EF8C9E716F0E1FCC4F8E4
:109480006C0410B13B23C57183713CF063F8D4F8D0
:109490006C0416F003FFB5E7084B1D6B2A431A63F3
:1094A000A4E7064B1D6C2A431A649FE74815002069
:1094B000683A0020384A050830250020003802406C
:1094C00010B50C460FF0ECFCFFF75CFF08230A48D0
:1094D00023700A4A0A4B01781268C3F874241329CE
:1094E0004FF0000283F8782408BF064B4FF00100CC
:1094F00008BF1A8010BD00BF19A300205CAD00207A
:10950000481500201CA3002070B505460E460FF03C
:10951000C7FCFFF737FF2B78344C092B84F83D3418
:109520002ED00F2B2CD0082B12D0314B1A780AB921
:1095300003221A702F4A1268C4F8902400233222A2
:10954000C4F8883484F89434C4F88C24012070BDA5
:10955000294A33701368294A2949C4F888205A05D2
:10956000C4F87C14E1D5274B1A78002A33D1264A57
:109570002649116002221A70012384F88034D4E74E
:10958000102223493270234A2348C4F87C04092B53
:10959000C4E9222113D00F2B06D123224FF4AF634D
:1095A00084F88124A4F88234134B1B685B05BCD576
:1095B0001A4D2B788BB1002384F88434B5E74FF42F
:1095C000C873A4F882340C4B1B6820225B0584F816
:1095D0008124AAD5ECE70023CFE7114B114A1A608A
:1095E00029F006F902232B700123E5E74815002036
:1095F000302500205CAD002084CF0020AD8700081E
:1096000095A70008757E0020347100204989000864
:10961000B19200087D860008ADA10008837E00207D
:109620000C71002049870008024BD3F8680418F039
:1096300043B800BF48150020F8B5DB4E054613F0CF
:10964000D1FB96F8783404460E2B00F2E580DFE873
:1096500013F00F00F1000E01E300E300E300E3006C
:10966000E300E300E3003B015A01B901DC01E5003E
:10967000CE4BD6F874241B689B1A0A2B40F2CC8080
:1096800000250FF0F1FBA6F89654FFF705FD012128
:1096900002202CF019F8072103202CF015F8D32113
:1096A00004202CF011F8912105202CF00DF80D214B
:1096B00006202CF009F8042107202CF005F80C21D5
:1096C00008202CF001F8292109202BF0FDFF0621AC
:1096D0000B202BF0F9FF96F89710B54C0C202BF0CF
:1096E000F3FF5C210D202BF0EFFF4E210E202BF01D
:1096F000EBFFC4210F202BF0E7FF7C2110202BF083
:10970000E3FF432111202BF0DFFF032112202BF078
:10971000DBFF232113202BF0D7FF3B2114202BF05C
:10972000D3FF442115202BF0CFFF0F2117202BF062
:10973000CBFF082118202BF0C7FF1D2119202BF08B
:10974000C3FF6C211A202BF0BFFF03211B202BF03D
:10975000BBFF40211C202BF0B7FF91211D202BF0D7
:10976000B3FF562121202BF0AFFF102122202BF038
:10977000ABFFA92123202BF0A7FF0A2124202BF0E7
:10978000A3FF294625202BF09FFF112126202BF037
:109790009BFF592129202BF097FF88212C202BF0AB
:1097A00093FF31212D202BF08FFF0B212E202BF04A
:1097B0008BFFFF213E202BF087FF04F15A07102575
:1097C00036202BF089FF29460A202BF07DFF33201D
:1097D0002BF082FF4FF4617013F07AFB2320FFF728
:1097E00051F920702420FFF74DF960702520FFF714
:1097F00049F9033404F8010C0635BC42EDB2DFD15F
:109800006C4B1A780A23132A86F8783404D16A4AF2
:10981000B6F89614518013800020F8BD12F01CFF9A
:10982000644B1A780023132A86F8783400F08A8172
:109830000120F8BDFFF7F8FE002840F0C281D6F8FD
:109840009834E41A002C40F318814FF4FA700FF0AA
:10985000E5FAFFF7FBF8FFF76BFCD6F8983403F551
:10986000F42303F59073C6F898340020F8BDFFF791
:10987000DBFE002840F08481D6F89834E21A002AF2
:1098800040F3FB8096F8A42403F5D4531033032A45
:10989000C6F8983411D0474B1978132900F0498144
:1098A0005AB9D6F8A0340133642BC6F8A03400F2BC
:1098B0000D81012B01D9FFF7C9F8002486F8A444D3
:1098C000FFF736FC2046F8BD01200FF083FA002890
:1098D00040F0C280374B1A780123132A86F8783477
:1098E00000F0FA80FFF724FC344B1B78032B02D1E5
:1098F000334B00221A8004F5F42404F59074C6F862
:1099000098440020F8BD96F93C317D2B07DD294BAA
:109910001B788222132B86F83C2100F00581234C12
:10992000D6F8382123689B1ADC2B00F20F81FFF751
:109930007BFE00283FF470AF2846FFF7B7F80028F9
:109940003FF46AAF00212846FFF752F8002800F0E4
:10995000B880AB7B03F07F03282B40F2B280154F19
:109960006B783A7886F89530132A08BF124A96F930
:109970003C31A97886F89C344FF0340008BF9380BE
:1099800086F896102BF0A8FE3A782368C6F838318E
:10999000132A4FF00C0386F878347FF43DAF064A63
:1099A00000201380F8BD00BF481500205CAD0020EA
:1099B0002016002019A300201CA300203025002021
:1099C00058250020A44C64200FF028FA2368D6F80C
:1099D00038219B1AB3F55C7F03D896F99C747A2FD3
:1099E0005DDD236896F83C11C6F838310C202BF069
:1099F0006BFE34202BF070FE984B1A780D23132A3F
:109A000086F878347FF408AFC9E7934F64200FF0ED
:109A100005FA3B68D6F8382196F93C419B1AB3F514
:109A20005C7F02D814F17A0F59DA96F99C341A1B2C
:109A3000022A13DD894A2344117803EBD3735B10A8
:109A40000E22132986F8973086F878247FF4E4AE46
:109A5000834B00201A80F8BD0FF014FAFFF77EFB4D
:109A60007E4B1B780B22132B86F878247FF4D4AE20
:109A70007B4B0B221A800020F8BD00200FF0AAF9C2
:109A800000283FF4C9AE754B1B780022132B86F8D3
:109A900078247FF4C1AE724B00201880F8BDFFF728
:109AA000C3FD00283FF4B8AE2846FEF7FFFF0028AC
:109AB0003FF4B2AE28460121FEF79AFF002840F09D
:109AC000BA8034202BF008FE0020F8BD01231329B2
:109AD00086F878347FF406AF614A138002E7FFF717
:109AE000A3FD00283FF498AE2846FEF7DFFF0028CC
:109AF0003FF492AE28460121FEF77AFF0028E0D01D
:109B0000564A3B681278C6F83831132AA4F1040388
:109B1000D9B208BF524A4BB286F83C3108BFD38055
:109B20000C202BF0D1FDCCE74D4B4FF68272DA8042
:109B3000F5E6B6F896344A4801339BB2A6F8963457
:109B40004380ADE6464A01201380F8BD434A96F8AB
:109B50003C1112782368C6F83831132A01F110013C
:109B6000C9B208BF3E4A4BB24FF00C0086F83C31F8
:109B700008BFD3802BF0A8FD34202BF0ADFDD6E636
:109B80002846FEF793FF00283FF476AE01212846D1
:109B9000FEF72EFF002894D02B7B0022C6F8A024CD
:109BA0001A0739D596F8A42404F5FA7442F0020293
:109BB000C6F8984486F8A4245B073FF52DAE022032
:109BC000F8BD2846FEF772FF00283FF438AE0121A9
:109BD0002846FEF70DFF00283FF473AF2B7B1907D3
:109BE0007FF56FAF0023C6F8A0340FF04BF91B4B85
:109BF0001A78132A08BF1A4A4FF002034FF00301E4
:109C000004F5FA7486F8A41486F8783408BF138033
:109C1000C6F898440020F8BD04F6AC543420C6F8C9
:109C200098442BF059FD96F8A4242B7B42F00102B6
:109C300086F8A424C0E7094A23681278C6F83831A8
:109C4000391DC9B24BB2132A86F89C347FF468AF31
:109C5000034A938064E700BF5CAD002019A3002095
:109C60001CA300202DE9F041B64E96F8943404462A
:109C7000052B00F2CD80DFE803F01823328CBF0300
:109C800096F89430002B00F01F8250240FF0E2F879
:109C9000322013F07BF9631E13F0FF04F6D1062384
:109CA00086F894340120BDE8F081A74BD6F89024C3
:109CB0001B689B1A0A2B00F24B810020BDE8F08143
:109CC00001200FF087F8002840F0A88096F8940053
:109CD000002840F0A380062386F89434EEE796F936
:109CE000AC34994AD6F8A8147D2BC4BF822386F8D9
:109CF000AC3413685B1A322B00F21681FFF794FC28
:109D00000028DAD0FB20FEF7BDFE10F07F05D4D08E
:109D1000294625442046FEF7C1FE15F8013C1A06E7
:109D2000CBD5A578012DC8D103F07F03322BC4D940
:109D300096F8AC3486F8973036202BF0CDFC96F8A8
:109D4000401123202BF0C0FC96F8411124202BF069
:109D5000BBFC96F8421125202BF0B6FC00210A200E
:109D60002BF0B2FC3A202BF0B7FC142013F0B0F823
:109D700034202BF0B1FC00240523284686F8AD34AE
:109D800086F83E41FFF75EFA0323204686F89434B6
:109D900094E7FFF749FC00288FD0FB20FEF772FE06
:109DA00010F07F0589D0294625442046FEF776FE2F
:109DB00015F9013C002B80DAA378012B7FF47DAFED
:109DC000607900287FF479AFE278237986F89520CE
:109DD0006FF0040186F89630091B621D04F10A0534
:109DE0008B18034412F8010F3344AA4283F89800F9
:109DF00000F093806079F3E796F8AD54782D47D959
:109E000036202BF069FC052386F89434002055E7B2
:109E1000D6F87C344D49BDE8F04118470FF032F8D0
:109E2000142119202BF050FC474A8223194612684E
:109E300086F8AC340C20C6F8A8242BF045FC0C2185
:109E400007202BF041FC082118202BF03DFC362088
:109E50002BF042FC96F8401123202BF035FC96F8AD
:109E6000411124202BF030FC96F8421125202BF0D4
:109E70002BFC00210A202BF027FC3A202BF02CFC95
:109E800034202BF029FC022386F89434002015E7B7
:109E9000FFF7CAFB00283FF410AFFB20FEF7F2FDEE
:109EA00010F07F073FF409AF394627442046FEF7FC
:109EB000F5FD17F9013C002BBFF6FFAEA378012B8F
:109EC0007FF4FBAEE27896F895309A427FF4F5AED7
:109ED000227996F896309A427FF4EFAE6279AA42E0
:109EE0007FF4EBAE04F1050E00231EF801CF17F846
:109EF000038CF018E045D9B2104403F1010302D0FD
:109F0000BCF1000F02D12C2D00F23381052B80F81B
:109F100098C000F032816279E7E7237B86F8CA3087
:109F2000042386F89434C8E696F8AC341268C6F870
:109F3000A8240533DBB219460C2086F8AC342BF08C
:109F4000C3FBDBE6481500205CAD0020DC190020D7
:109F5000FFF7A2F8012102202BF0B6FB18210846DA
:109F60002BF0B2FB042107202BF0AEFBFF213E209B
:109F70002BF0AAFB00210C202BF0A6FB5C210D206E
:109F80002BF0A2FB232113202BF09EFB7A2114201F
:109F90002BF09AFB162119202BF096FB6C211A202E
:109FA0002BF092FB03211B202BF08EFB40211C2069
:109FB0002BF08AFB91211D202BF086FB56212120BE
:109FC0002BF082FB102122202BF07EFBA9212320E5
:109FD0002BF07AFB0A2124202BF076FB0021252090
:109FE0002BF072FB112126202BF06EFB592129202A
:109FF0002BF06AFB88212C202BF066FB31212D20D1
:10A000002BF062FB0B212E202BF05EFB072103209F
:10A010002BF05AFB002109202BF056FB96F83D440B
:10A02000092C7DD00F2C52D0082C27D10C211720C1
:10A030002BF04AFB76210E202BF046FB27210F2028
:10A040002BF042FB192106202BF03EFB0521204678
:10A050002BF03AFB21460B202BF036FBAA211020D7
:10A060002BF032FB392111202BF02EFB1121122075
:10A070002BF02AFB422115202BF026FB414C00251A
:10A0800036202BF029FBE9B20A202BF01DFB3320F0
:10A090002BF022FB4FF4617012F01AFF2320FEF721
:10A0A000F1FC20702420FEF7EDFC60702520FEF707
:10A0B000E9FC0135FF2DA07004F10304E0D1012378
:10A0C00086F894340020F9E512F0C6FAE7E50E218F
:10A0D00017202BF0F9FA80210E202BF0F5FA2046FC
:10A0E00000212BF0F1FA232106202BF0EDFA0121BB
:10A0F00008202BF0E9FA08210B202BF0E5FA7B2150
:10A1000010202BF0E1FAF82111202BF0DDFA0321C9
:10A1100012202BF0D9FA532115202BF0D5FAADE7F8
:10A120000C2117202BF0D0FA76210E202BF0CCFA40
:10A1300027210F202BF0C8FA1E2106202BF0C4FA8D
:10A14000012108202BF0C0FA0A210B202BF0BCFAC9
:10A150007B2110202BF0B8FA612111202BF0B4FAEA
:10A16000132112202BF0B0FA512115202BF0ACFA5C
:10A1700084E70A4486F83E2142E6053586F8AD5468
:10A1800000209BE58816002038B50D4604463B208C
:10A190002BF0A2FA2A46214603483CF009FA352062
:10A1A000BDE838402BF098BA783A00202DE9F0410C
:10A1B0000B78063B0E460746042B21D8DFE803F058
:10A1C000AF2303407700B94CFFF72EFA28B194F87B
:10A1D000B484B8F1000F00F01C8194F8BC34002B5B
:10A1E00040F0AF8012F0FEFDD4F8B034D4F88C14F7
:10A1F00042F22832C01A02FB01F28242C0F2F6801B
:10A200000020BDE8F08112F0EDFDA84C00250822E9
:10A21000C4F8B00441F2B44332702846C4F8B834EC
:10A2200084F8B4540EF0D6FD0028CDD03223C4F803
:10A23000B054C4F8885435702846C4F88C34E0E72C
:10A240009A4C12F0CFFDB4F88224D4F8B814D4F8A4
:10A25000B0340A44C01A8242D2DC36202BF03CFAD9
:10A260003CF000FA3A202BF037FA1E2012F030FEB4
:10A27000D4F8700408B116F011F836202BF02CFA3F
:10A2800094F8C8148A480131C9B2FFF77DFF94F8E9
:10A29000842494F8B434002A4FF00A0214BF042036
:10A2A00000203270002BACD040F00200A9E77F4CB8
:10A2B00012F098FDD4F8B824D4F8B03402F67462E1
:10A2C000C01A82429CDA12F08DFDDFF80082C4F8D9
:10A2D000B00441F2B44398F80200C4F8B834002343
:10A2E00084F8B434FEF75EFF34202BF0F5F9D4F88F
:10A2F000700408B115F0CCFFD4F88854012D00F299
:10A30000C3806C4B1B78122B08BF6B4B05F101050A
:10A3100008BF5D800823C4F88854337070E7634B2E
:10A320002F22002083F83E21FEF78CFF0723337095
:10A330000120FEF737FF34202BF0CEF90020BDE8D6
:10A34000F08112F04FFDD4F8B034D4F8B824C01A1C
:10A350008242BFF647AF0923337094F8953084F8F2
:10A36000C93494F8962084F8CA240E2384F8C8349B
:10A3700094F8DC84FD7884F8CB54B8F1000F40F0F9
:10A38000F28094F8CB30012B00F09C81C0F09581D5
:10A39000022B0CBF3220002084F8CC047B7D88F097
:10A3A00001081A0784F8DC8440F192808822002397
:10A3B00084F8CD2484F8DD344049414801F109078F
:10A3C000002201E011F8015F85EA122500EB450546
:10A3D0008F42B5F8743083EA02231BB29AB2F1D1EE
:10A3E000120A84F8D52484F8D634FBE60EF032FD48
:10A3F000344B1B78032B02D1334B00221A800120EF
:10A40000FEF7D0FE34202BF067F9072333700020CD
:10A41000F7E6FB20FEF736FB94F8815400F07F004E
:10A4200085422DD829463846FEF738FBEB1F13F03E
:10A43000FF0307F1030100F065810333204807EBB8
:10A44000030C424611F8013B83EA122300EB43035D
:10A450006145B3F8743083EA02239AB2F2D1130A49
:10A46000791911F8040C984200F08480114AD4F84C
:10A47000FC3412780133122AC4F8FC3400F03F8116
:10A4800034202BF029F9A8E6FEF7E0FA642D7FF6D8
:10A4900038AF322301220020C4F88C34072388F817
:10A4A000012084F8BC043370ABE600BF48150020DF
:10A4B000101A002019A300201CA30020131A00204A
:10A4C0001818050830250020582500209801002084
:10A4D000C3F3011213F0400340F0FC80013294F802
:10A4E000DD1402F0030291423FF466AF94F8C054C9
:10A4F00094F8F82494F800E09E4805F0F00561F324
:10A50000010584F8CD5472455FFA83FC04EB020721
:10A5100002F1010503F1010300F019813A7900F815
:10A52000012B052B05F03F02EDD184F8F8249C4661
:10A53000914A84F8CEC4174601EB41004B1C410000
:10A5400057F812CD42F801C0584200F003000A4407
:10A5500003F00303BF8894F8CB54978058BF43425D
:10A5600084F8DD3428E794F8903063F07F0384F8B2
:10A57000CC3413E711F8031CD3B299427FF476AFC1
:10A580003B78033DAB427FF471AF7A7894F8953015
:10A590009A427FF46BAFBA7894F896309A427FF47F
:10A5A00065AF94F8CA2022B1BB7913B19A427FF407
:10A5B0005DAFDFF8DC8100230122C4F88834C4F8E1
:10A5C000B834C4F88C240EF05DFC98F80130BBB1AF
:10A5D0007B79397994F83E219B00DBB2914288F86F
:10A5E000023007D302F13F008842C0F2B38001334A
:10A5F00088F802300122002384F8BC2488F8013056
:10A6000094F881343B443D4613F8020CFEF7BAF946
:10A61000787D5A4955F8163F94F8C1C400F00300FC
:10A62000C0EBC0028B5011440CF10103AD888D804A
:10A63000224403F003030121DDB282F84E14A84244
:10A640004FF0000284F8C0240DD02A46C2EBC201AC
:10A65000214402F1010E91F84E14002954D00EF05D
:10A6600003029042F2D1C3EBC3022244002192F8CC
:10A670004E24C4F8C41482B1AC4503D10DE08C451E
:10A680000BD00D46013303F00303C3EBC302224496
:10A69000D9B292F84E24002AF1D194F8C03484F84B
:10A6A000C15465F3051384F8C03412F09BFB0123F9
:10A6B000C4F8B00484F8B4348FE52BF0CBFC00F080
:10A6C0007F0069E62E4A2F4B127B33F81200C0F34D
:10A6D000461061E62C4894F8C03402EB420700F1C2
:10A6E000120101EB470103F0F0030F688988C4F8F9
:10A6F000CE7462F30103818084F8CD345CE6234A92
:10A700009380BDE61A46ABE694F8C0E4D4F8C404DE
:10A7100062F3051E5FFA8EF242F04002013084F8C7
:10A72000C0245206C4F8C4049DD50428BDD903230F
:10A7300084F84E1484F8551484F85C1484F8631477
:10A74000C4F8C41484F8443484F8C134ADE784F800
:10A75000F824EDE602F17F00814203DC023388F841
:10A76000023047E7BF329142DCBF033388F8023042
:10A7700040E700BF171A0020281A00209019002077
:10A780009CAD0020CCAD0020161A00201CA3002098
:10A79000980100202DE9F0410D4682B0804612F06C
:10A7A00021FB2B78063B0746032B4ED8DFE803F04E
:10A7B000522F0243C94EFEF737FF00285ED1D6F86C
:10A7C0008C1442F22832044602FB01F2D6F800351E
:10A7D000FF1A97424EDDD6F8700418B115F058FDF7
:10A7E000D6F88C1401295BD1D6F88874012F7ED855
:10A7F00001370120C6F88874FEF7D4FC34202AF013
:10A800006BFF072320462B7002B0BDE8F081B34EEA
:10A8100008232B700020C6F800750EF0DBFA002824
:10A82000C9D000243223C6F80045C6F888442C70ED
:10A83000C6F88C341EE0A94E12F0D4FAD6F80435CE
:10A84000C01A40F26353984234DC0024204602B020
:10A85000BDE8F081A14B2F22002083F83E21FEF7B6
:10A86000F1FC07232B700120FEF79CFC34202AF01A
:10A8700033FF0024204602B0BDE8F081FB20FEF744
:10A8800001F900F07F00132857D834202AF024FF64
:10A89000D6F88C1442F2283202FB01F2002495E72C
:10A8A0000EF0D8FA8E4B1B78032B31D00D20FEF71B
:10A8B00079FCA3E736202AF00FFF3BF0D3FE3A20C5
:10A8C0002AF00AFFD6F8700408B115F0E7FC36202C
:10A8D0002AF002FF96F80C1582480131C9B2FFF741
:10A8E00053FC0823C6F800752B700224C2E7FEF75C
:10A8F000ADF8642F7FF67CAF794B1B783222032BA7
:10A90000C6F88C247FF474AF774B00221A806FE76F
:10A91000764F774E3A78774836F812C00368511C64
:10A9200001F00F0139700021A3EB0C0326F812107F
:10A930006D4A03601B091380B8E714214046FEF7F7
:10A94000ADF898F91330002B9FDA98F80030002406
:10A950000121112BC6F88844C6F88C1402D042F2AB
:10A96000283233E798F8012096F895309A42F6D1CC
:10A9700098F8022096F896309A42F0D101910EF0A4
:10A9800081FA01990846FEF70DFC98F81200FDF7D0
:10A99000F9FF98F8033003F00303022B0ED03420A4
:10A9A0002AF09AFE07232B70D6F88C14C6F800758F
:10A9B00042F2283202FB01F2022407E712F012FAF7
:10A9C00096F8CB30C6F80405012B2FD060D3022BAC
:10A9D00049494A4A0CBF64232346497C98F804003D
:10A9E00032F8111096F8802496F8954086F80F35C5
:10A9F000090986F810154FF0110C96F89610B6F864
:10AA0000903086F8080586F80CC586F80D4586F85E
:10AA10000E1586F811358AB9134686F8123596F860
:10AA2000082586F8132509232B70BDE73249334AE0
:10AA30000B7B32F81330C3F30713CEE796F82035BB
:10AA400096F84620834230D096F8213586F8223594
:10AA500096F8221596F84600224C002205E09EF852
:10AA600048308CF808300A2A1BD001F101088842CE
:10AA700006EB010E04EB020CD3B208F03F0102F129
:10AA80000102ECD1002286F8220586F84620C4E7B0
:10AA90001B4B19491B88194A0520B3FBF0F3DBB2A5
:10AAA0009BE786F822151346B7E7013303F01F032F
:10AAB00096F8221586F8203586F82115002AC7D188
:10AAC00086F8222512F08EF90E4B0F4A1B68C31A26
:10AAD0009342BDDD28F050F9BAE700BF48150020C9
:10AAE00030250020541A0020582500203125002050
:10AAF00034250020542500209CAD0020CCAD002042
:10AB0000C0790020E87D002047E801002DE9F04FE2
:10AB100087B0A94A02904068038823F040031B04D1
:10AB20001B0C0380038823F038031B0490424FEA78
:10AB3000134300F03F8102F5806290420CBF302247
:10AB4000382213430380029B02889B6842F0400234
:10AB5000028013B11A689B885383838940F2E933DA
:10AB600002E0002B00F090810289013B12F0020FFD
:10AB70009BB2F6D06B23838140F2E93302E0002BD5
:10AB800000F082810289013B12F0010F9BB2F6D0E6
:10AB90008389838940F2E93302E0002B00F0718160
:10ABA0000289013B12F0020F9BB2F6D08023838111
:10ABB00040F2E93302E0002B00F063810289013B9F
:10ABC00012F0010F9BB2F6D08389029B9B6813B1F0
:10ABD0001A689B8813830623784CDFF8EC81DFF832
:10ABE000ECA1774D774E04939623DFF8E4C10193EF
:10ABF0004FF0100EDAF80430C3F30803002B40F0D6
:10AC0000B280EFF31183002B40F0AD802068AA687A
:10AC100023689842FAD133689A42F7D8D8F800707E
:10AC20004FF47A7101FB07F39B1AB3FBF7F301FBB7
:10AC300000304FF47A774FF00109DAF80430C3F3AB
:10AC40000803002B70D1EFF31183002B6CD1236824
:10AC5000A96822689342FAD132689142F7D8D8F8AD
:10AC6000002007FB02FBABEB0101B1FBF2F107FB9C
:10AC700003131B1AB3F57A7FDFD3019B013B0193CA
:10AC8000B8D1029B9B6813B11A689B885383029BBF
:10AC9000586840F2E933828902E0002B00F0858099
:10ACA0000289013B12F0020F9BB2F6D0F52383819B
:10ACB00040F2E93301E0002B77D00289013B12F02A
:10ACC000010F9BB2F7D08389838940F2E93301E019
:10ACD000002B67D00289013B12F0020F9BB2F7D024
:10ACE000FF23838140F2E93301E0002B5AD002892F
:10ACF000013B12F0010F9BB2F7D08389DBB20393C3
:10AD0000029B9A6812B1136891881983039B682B80
:10AD100060D0049B013B13F0FF0304937FF464AF06
:10AD2000184607B0BDE8F08FEFF311818EF312885B
:10AD3000D5F808B02B68DB0344BFCCF80090D5F8F9
:10AD400008B02368DCF80020C9B281F31188D8F874
:10AD50000010134407FB01F2A2EB0B02B2FBF1F26D
:10AD600007FB032385E7EFF311838EF31288AF68A7
:10AD70002A68D20303D50122CCF80020AF682068EE
:10AD8000DCF80090DBB283F31188D8F800104FF4A0
:10AD90007A72484402FB01F3DB1BB3FBF1F302FBC5
:10ADA000003046E716F0D6FEAAE716F0D3FE029B67
:10ADB000586889E73022C4E6003800405CAD0020C6
:10ADC00010E000E064AD002060AD002000ED00E088
:10ADD00058AD002012B1136892885A83029B5868BC
:10ADE00040F2E933828901E0002B45D00289013B22
:10ADF00012F0020F9BB2F7D08C23838140F2E9332B
:10AE000001E0002B38D00289013B12F0010F9BB208
:10AE1000F7D08389838940F2E9330289013B12F03C
:10AE2000020F9BB215D1002BF7D116F093FE029BB7
:10AE30009B6813B11A689B881383059B142B04D35A
:10AE4000182B17D9543B062B14D9002007B0BDE8A6
:10AE5000F08FFF23838140F2E93301E0002BE4D03F
:10AE60000289013B12F0010F9BB2F7D08389DBB25C
:10AE70000593DCE7032054E716F06CFE029B58684C
:10AE8000C8E716F067FEA0E616F064FE029B58685D
:10AE90007FE600BFF0B5876983B0064617B13B680F
:10AEA000BA885A837069DFF8A8E08389C3244FF415
:10AEB0007A734FF0060C6D464FF6FF710EF1010EDE
:10AEC00003E0013B9BB28B4220D002899207F8D568
:10AED000A3B283814FF47A7302E0A3B28B4215D000
:10AEE0000289D20703F1FF34F7D5828992B20DB1FE
:10AEF0002A700135BCF1000F0BD00CF1FF3CFF2490
:10AF0000BEF1000FE1D09EF80040D7E716F022FE18
:10AF1000B76917B13B68BA881A839DF805009DF898
:10AF200001509DF802109DF803409DF804209DF803
:10AF3000063041EA052143EA002342EA04220120C7
:10AF4000A6F85010A6F85220A6F8543003B0F0BD71
:10AF50008C1A0508037B022B01D000207047F0B546
:10AF6000436983B013B11A689B8853830446006910
:10AF700040F2E933828901E0002B5DD00289013B78
:10AF800012F0020F9BB2F7D0BB23838140F2E9336A
:10AF900001E0002B50D00289013B12F0010F9BB25F
:10AFA000F7D083898389038999074FF005076E4697
:10AFB0004FF47A724FF0FF0C4FF6FF7506D4531E14
:10AFC0009BB2D2B11A4603899907F8D5A0F80CC0F4
:10AFD0004FF47A7302E08BB2AB420ED00289D207F3
:10AFE00003F1FF31F7D5828992B20EB1327001368A
:10AFF0007A1E27B117461A46E5E716F0ABFD6369DE
:10B0000013B11A689B8813839DF804009DF80060B3
:10B010009DF801109DF802509DF803209DF8053021
:10B0200041EA062143EA002342EA05220120618326
:10B03000A283E38303B0F0BD16F08CFD2069B1E775
:10B0400008B5012024F0D4FF174A936803F00C03DD
:10B05000042B1ED0082B18D151685368490203F005
:10B060003F0319D452681148B0FBF3F0C2F38813C0
:10B0700000FB03F00C4B0E4A5B68C3F30143013342
:10B080005B00B0FBF3F0106008BD094B074A1A6083
:10B0900008BD074B186008BDB0FBF3F05368C3F35D
:10B0A000881300FB03F0E5E7003802400024F400B9
:10B0B00030A300202DE9F84F037C02681F2B86BFC8
:10B0C000203B51681168202202FA03F30B4214BF9F
:10B0D000012300230BB9BDE8F88F4569DFF878A19B
:10B0E0006F01044611F07EFE7B190AEBC30306468E
:10B0F0001A7C002A34D153495A680978D2F8009052
:10B10000C9B9D96F58890A6822F001020A60B9F8F2
:10B110000C3023EA0003A9F80C304B4B1B78002BB2
:10B1200031D1237C21681F2B13D8202202FA03F38C
:10B130008B60BDE8F88F5269136823F00103136038
:10B14000B9F80C3023F480731B041B0CA9F80C30E5
:10B15000E3E7203B202202FA03F3CB60BDE8F88F3F
:10B16000DE6F3A485F8901225A7431685A68036871
:10B17000156821F001013160AA89013322EA070232
:10B18000AA810360CDE72F44FF000AEB07053037A3
:10B19000D5F87C80404624F0DBFF01232B74D5F8E2
:10B1A00080B011F01FFE0AEB0701CBF82C014846D6
:10B1B00025F036F8D5E91470EB6BD5E916123B4350
:10B1C00003430B4313432A6E2F6FD8F80000204926
:10B1D00013436A6E13436A6F3B43014013430B43AF
:10B1E0000022AA64C8F80030D8F81420AB6EE96CCD
:10B1F00022F0070CEA6ED5E91070134343EA0C0302
:10B20000C8F81430C8F80410C8F80870C8F80C0062
:10B21000D8F80020EB6F95F87800696842F01002CA
:10B22000C8F8002058601A68096842F001021A60E4
:10B230008B896A8913438B8111F0D4FD054B801BE8
:10B2400018606EE7ADC50020ACC500204484002026
:10B250003F801CF060D4002028AE0020037903F06A
:10B260001803082B0AD002D82BB100207047102BEE
:10B2700016D0182BF9D1B0F80B007047114BB0F86D
:10B280000B0093F90030591C06BF0F4B1B78DBB243
:10B29000C3EB0312C3EB820300EB430080B27047A1
:10B2A0000A4BB0F80B0093F900305A1C06BF064B4E
:10B2B0005B78DBB203EB430203EB820300EB43005A
:10B2C00080B270474115002038C200204015002090
:10B2D000F0B5067906F06003402B09D144794FF0B0
:10B2E000FF350023012006F00706A3420BD1F0BD75
:10B2F000602B08BF45794FF001040CBF04FA05F537
:10B300004FF0FF35EDE7042E0CD8DFE806F0030D13
:10B3100018242E0030B1C85CD75C784028420CBF9E
:10B32000012000200133E0E70028FBD0C856D756A3
:10B33000A0EB070CDCF1000040EB0C00F2E700286A
:10B34000F0D031F8130032F81370784028420CBF67
:10B3500001200020E6E70028E4D031F9130032F99B
:10B360001370C71B78427841DCE70028DAD051F827
:10B37000230052F82370784028420CBF012000209F
:10B38000D0E7024B0146186816F028BD184200208D
:10B3900038B5064D441E14F8011F286819B9BDE8D8
:10B3A000384016F00DBD16F019FDF4E718420020E4
:10B3B0000048EDE742B9050808B5FFF7E9FFBDE829
:10B3C0000840F5E710B504460348FFF7E1FF2046C3
:10B3D000BDE81040F0E700BFE57F050838B5074C31
:10B3E000074DAC4203D3074B00221A7038BD628868
:10B3F000D4E9010144F098FE1434F2E7A0010008FA
:10B40000180700085CD4002038B5074C074DAC4243
:10B4100003D3074B01221A7038BD6288D4E90110AA
:10B4200044F082FE1434F2E7A00100081807000877
:10B430005CD40020024A136823EA000010607047C1
:10B4400084CF002030B402681146531C036011F809
:10B45000024B0160D31C517803609378151D056081
:10B460001B0443EA0123D078234343EA006030BC45
:10B47000704700BF0368591C1A46016012F8021B8E
:10B480000260587841EA0020704700BF03685A1CE8
:10B4900002601878704700BF70B5044608460E4633
:10B4A00043F0C2FE314605460246206844F03CFEA9
:10B4B00020682844206070BD38B5044600681546F1
:10B4C00044F032FE22682A44226038BD036810B47A
:10B4D0000A0E5C1C04601A7003680A0C5C1C046091
:10B4E0001A7003680A0A5C1C04601A7003685A1C0C
:10B4F000026019705DF8044B704700BF036810B418
:10B500000A0A5C1C04601A7003685A1C02601970F5
:10B510005DF8044B704700BF03685A1C026010B40A
:10B52000197003680A0A5C1C04601A7003680A0C2C
:10B530005C1C04601A700368090E5A1C02601970C2
:10B540005DF8044B704700BF03685A1C0260197015
:10B550000368090A5A1C02601970704707EE901AB6
:10B56000F8EE677A9FED807A27EE800A20EE070AD0
:10B57000FDEEC07A17EE903A2033402B7BD8DFEDFA
:10B580007B7AB4EEE70AF1EE10FA40F3E180B0EE18
:10B59000407A9FED776ADFED776A01E0B0EE677A77
:10B5A000B4EEE67AF1EE10FA77EE467AF6DC9FED2D
:10B5B000727AF4EEC77AF1EE10FA40F1CC809FED8A
:10B5C0006C6ADFED6E6A01E0F0EE477AF4EEE67A3F
:10B5D000F1EE10FA37EE867AF6D4DFED697AB4EE42
:10B5E000E77AF1EE10FA40F3A280DFED607A37EEF1
:10B5F000C77A27EE076ADFED635ADFED637ADFED86
:10B60000636A9FED635AE6EE257A67EE065AE6EE28
:10B61000276AF7EE007AA5EEA67AF0EE675AE7EE13
:10B62000055AE7EE457A87EEA55ADFED557A30EEFA
:10B63000277AFDEEC76A16EE903A2033402B1FD9C9
:10B640009FED547AF6EE006AB7EE006AF7EE004A14
:10B65000C4EEA57A80ED045A67EEA66A27EE866AE4
:10B6600027EE877AC0ED006AC0ED026A80ED016ABC
:10B6700080ED037A7047B7EE005AF0EE455AD4E7F2
:10B68000B4EEE70AF1EE10FA6BDD9FED396ADFEDFB
:10B69000396A01E0B0EE677AB4EEE67AF1EE10FABC
:10B6A00077EE467AF6DC9FED347AF4EEC77AF1EE67
:10B6B00010FA53D59FED2E6ADFED306A01E0F0EE0F
:10B6C000477AF4EEE67AF1EE10FA37EE867AF6D49F
:10B6D000DFED2B7AB4EEE77AF1EE10FA33DCDFED32
:10B6E0002E7AB4EEE77AF1EE10FA44BFDFED227A5B
:10B6F00037EEC77A27EE076ADFED224ADFED226ACE
:10B70000DFED227AE6EE246A67EE064AE6EE267A56
:10B71000B7EE006AA4EEA77AF6EE006A36EE476A44
:10B72000F8EE007A27EE277A66EE266A8EE7DFEDDE
:10B730001A7AB4EEE77AF1EE10FA44BFDFED0E7A32
:10B7400037EEC77A55E7DFED097A37EEC77AD1E7EA
:10B75000F0EE407A2BE7B0EE677A3EE7B0EE677A1C
:10B76000B6E7F0EE477A9EE727D4D236DB0F4940A2
:10B77000DB0FC940E4CB1641DB0F49C0E4CB16C157
:10B78000DB0FC93F92E741B99730083C15A82ABEA4
:10B79000F304353F00000000DB0FC9BFDFED2E7A58
:10B7A000B4EEE70AF1EE10FA4ADDDFED2C6A9FED08
:10B7B0002C7A01E0B0EE670AB4EEC70AF1EE10FA97
:10B7C00070EE667AF6DC9FED277AF4EEC77AF1EE3A
:10B7D00010FA3ED5DFED216A9FED237A01E0F0EE0D
:10B7E000407AF4EEC77AF1EE10FA37EEA60AF6D4F4
:10B7F000DFED1E7AB4EEE70AF1EE10FA14DDDFEDAC
:10B80000167A37EEC00A60EE006A9FED196A9FED66
:10B81000197ADFED197AA6EE867A20EE266AE6EE30
:10B82000877AA6EE270A7047DFED147AB4EEE70AAE
:10B83000F1EE10FA44BFDFED0B7A37EEC00AE2E713
:10B840009FED087AF0EE407AF4EEC77AF1EE10FA46
:10B85000C0D4B0EE670ACBE7DB0F4940DB0FC9402D
:10B86000E4CB1641DB0F49C0E4CB16C1DB0FC93F67
:10B8700092E741B99730083C15A82ABEDB0FC9BF33
:10B88000DFED317A30EE277AFDEEC76A16EE903A98
:10B890002033402B02D99FED2D0A7047B4EEE70A02
:10B8A000F1EE10FA4DDD9FED2A6ADFED2A6A01E024
:10B8B000B0EE677AB4EEE67AF1EE10FA77EE467AF9
:10B8C000F6DC9FED257AF4EEC77AF1EE10FA35D565
:10B8D000DFED1F6A9FED217A01E0F0EE407AF4EE91
:10B8E000C77AF1EE10FA37EEA60AF6D4DFED167A33
:10B8F000B4EEE70AF1EE10FA1BDCDFED197AB4EED4
:10B90000E70AF1EE10FA44BFDFED137A37EEC00A12
:10B9100060EE006A9FED136A9FED137ADFED137AF4
:10B92000A6EE867A20EE266AE6EE877AA6EE270A4B
:10B930007047DFED0F7A37EEC00AE9E7B0EE670A2D
:10B94000D4E7F0EE477ABCE7DB0FC93F0000000008
:10B95000DB0FC940E4CB1641DB0F49C0E4CB16C175
:10B96000DB0FC9BF92E741B99730083C15A82ABE42
:10B97000DB0F494007EE901AF8EE677A9FED837A65
:10B9800027EE800A20EE070AFDEEC07A17EE903A05
:10B990002033402B00F28180DFED7D7AB4EEE70AA0
:10B9A000F1EE10FA40F3E680B0EE407A9FED796A4E
:10B9B000DFED796A01E0B0EE677AB4EEE67AF1EE97
:10B9C00010FA77EE467AF6DC9FED747AF4EEC77AD9
:10B9D000F1EE10FA40F1D1809FED6E6ADFED706AF2
:10B9E00001E0F0EE477AF4EEE67AF1EE10FA37EE87
:10B9F000867AF6D4DFED6B7AB4EEE77AF1EE10FAE0
:10BA000040F3A780DFED627A37EEC77A27EE076A48
:10BA1000DFED655ADFED657ADFED656A9FED655A0A
:10BA2000E6EE257A67EE065AE6EE276AF7EE007A2A
:10BA3000A5EEA67AF0EE675AE7EE055AE7EE457AEC
:10BA400087EEA55ADFED577A30EE277AFDEEC76A0A
:10BA500016EE903A2033402B24D99FED577AF6EE1C
:10BA6000006AB7EE006AF7EE004AC4EEA57A00233A
:10BA7000836143610362C36180ED045A67EEA66A85
:10BA800027EE866A27EE877AC0ED006AC0ED026A6B
:10BA900080ED016A80ED037A7047B7EE005AF0EE50
:10BAA000455ACFE7B4EEE70AF1EE10FA6BDD9FEDF1
:10BAB000396ADFED396A01E0B0EE677AB4EEE67A12
:10BAC000F1EE10FA77EE467AF6DC9FED347AF4EE7A
:10BAD000C77AF1EE10FA53D59FED2E6ADFED306A8A
:10BAE00001E0F0EE477AF4EEE67AF1EE10FA37EE86
:10BAF000867AF6D4DFED2B7AB4EEE77AF1EE10FA1F
:10BB000033DCDFED2E7AB4EEE77AF1EE10FA44BFC3
:10BB1000DFED227A37EEC77A27EE076ADFED224A99
:10BB2000DFED226ADFED227AE6EE246A67EE064A4E
:10BB3000E6EE267AB7EE006AA4EEA77AF6EE006A81
:10BB400036EE476AF8EE007A27EE277A66EE266A26
:10BB500089E7DFED1A7AB4EEE77AF1EE10FA44BF26
:10BB6000DFED0E7A37EEC77A50E7DFED097A37EE70
:10BB7000C77AD1E7F0EE407A26E7B0EE677A39E788
:10BB8000B0EE677AB6E7F0EE477A9EE727D4D23672
:10BB9000DB0F4940DB0FC940E4CB1641DB0F49C046
:10BBA000E4CB16C1DB0FC93F92E741B99730083C9F
:10BBB00015A82ABEF304353F00000000DB0FC9BF03
:10BBC00002B370B48E1803E0121B14D1B14215D029
:10BBD00010F8012BA2F14103192B11F8013BA3F13D
:10BBE000410598BF2032192D03F12004ECD9D21A57
:10BBF00001D1002BEAD1104670BC704700221046DC
:10BC000070BC70471046704770B5044608460D4634
:10BC100043F00AFB064602E014F8013F43B1324606
:10BC200029462046FFF7CCFF0028F5D1204670BDFD
:10BC30001C46204670BD00BF4FF0FF32FFF7C0BF6B
:10BC4000A0F16103192B98BF20387047A0F1410380
:10BC5000192B98BF20307047202805D009380428B8
:10BC60008CBF002001207047012070472DE9F04172
:10BC70001F46064603461C782046FFF7EDFF1D468B
:10BC800001330028F7D12B2C51D02D2C24D0102A91
:10BC9000804628D04FF0FF33B3FBF2F302FB03FCE6
:10BCA0006FEA0C0C5FFA8CFC013500200BE0303C95
:10BCB000E4B2944225DA98422E461DD81AD002FBEF
:10BCC000004015F8014B392CF1D944F02004602CC8
:10BCD00017D9573CE4B2ECE74FF00108102A6C7812
:10BCE00005F10105D6D1302C23D06FF070434FF011
:10BCF0000F0CD9E76445E2D907EA08084FF0FF3096
:10BD0000DFE701B10E60B8F1000F08D027B1B0F144
:10BD1000004F28BF4FF000404042BDE8F081002FA7
:10BD2000FBD06FF00043984228BF1846F5E78046E5
:10BD3000D4E76C782046FFF789FF782805F10106E3
:10BD400005D035466FF070434FF00F0CACE7AC7880
:10BD50006FF0704302354FF00F0CA5E701230A2264
:10BD6000002183E7613819288CBF0020012070472B
:10BD7000413819288CBF002001207047303809282D
:10BD80008CBF002001207047A0F13003092B07D998
:10BD900020F02000413819288CBF00200120704776
:10BDA000012070470378202B024600F10100F9D0F2
:10BDB000092BF7D02D2B00F0A4802B2B03BF537839
:10BDC000B7EE000A0246B7EE000AA3F13001C8B28E
:10BDD00009289FED577A10D8F2EE046A07EE901A00
:10BDE000F8EEE77A12F8013FE7EE267AA3F1300188
:10BDF000C8B20928B0EE677AF0D92E2B63D003F0D1
:10BE0000DF03452B02D020EE070A704710B45178AB
:10BE10002D294FD02B2979D0A1F13003092B02F124
:10BE200001027AD80024002303EB830301EB4303D0
:10BE300012F8011FA1F130000928A3F13003F3D952
:10BE4000B3F59A7F1A4628BF4FF49A72072B6CD924
:10BE5000DFED386A1346F7EE007A083B072B67EEF2
:10BE6000A67AFAD802F00702DAB1F2EE046A012AE1
:10BE700067EEA67A15D0022A67EEA67A11D0032AB9
